{"abi":[{"type":"function","name":"frozen","inputs":[],"outputs":[{"name":"","type":"bool","internalType":"bool"}],"stateMutability":"view"},{"type":"function","name":"initialize","inputs":[{"name":"_latestBlock","type":"uint64","internalType":"uint64"}],"outputs":[],"stateMutability":"nonpayable"},{"type":"function","name":"latestBlock","inputs":[],"outputs":[{"name":"","type":"uint64","internalType":"uint64"}],"stateMutability":"view"},{"type":"function","name":"state_dataCommitments","inputs":[{"name":"","type":"uint256","internalType":"uint256"}],"outputs":[{"name":"","type":"bytes32","internalType":"bytes32"}],"stateMutability":"view"},{"type":"function","name":"state_proofNonce","inputs":[],"outputs":[{"name":"","type":"uint256","internalType":"uint256"}],"stateMutability":"view"},{"type":"function","name":"submitDataCommitment","inputs":[{"name":"_dataCommitment","type":"bytes32","internalType":"bytes32"},{"name":"_beginBlock","type":"uint64","internalType":"uint64"},{"name":"_endBlock","type":"uint64","internalType":"uint64"}],"outputs":[],"stateMutability":"nonpayable"},{"type":"function","name":"updateFreeze","inputs":[{"name":"_freeze","type":"bool","internalType":"bool"}],"outputs":[],"stateMutability":"nonpayable"},{"type":"function","name":"updateGenesisState","inputs":[{"name":"_height","type":"uint64","internalType":"uint64"}],"outputs":[],"stateMutability":"nonpayable"},{"type":"function","name":"verifyAttestation","inputs":[{"name":"_proofNonce","type":"uint256","internalType":"uint256"},{"name":"_tuple","type":"tuple","internalType":"struct DataRootTuple","components":[{"name":"height","type":"uint256","internalType":"uint256"},{"name":"dataRoot","type":"bytes32","internalType":"bytes32"}]},{"name":"_proof","type":"tuple","internalType":"struct BinaryMerkleProof","components":[{"name":"sideNodes","type":"bytes32[]","internalType":"bytes32[]"},{"name":"key","type":"uint256","internalType":"uint256"},{"name":"numLeaves","type":"uint256","internalType":"uint256"}]}],"outputs":[{"name":"","type":"bool","internalType":"bool"}],"stateMutability":"view"},{"type":"event","name":"DataCommitmentStored","inputs":[{"name":"proofNonce","type":"uint256","indexed":false,"internalType":"uint256"},{"name":"startBlock","type":"uint64","indexed":true,"internalType":"uint64"},{"name":"endBlock","type":"uint64","indexed":true,"internalType":"uint64"},{"name":"dataCommitment","type":"bytes32","indexed":true,"internalType":"bytes32"}],"anonymous":false},{"type":"error","name":"ContractFrozen","inputs":[]}],"bytecode":{"object":"0x608060405234801561000f575f80fd5b506114b98061001d5f395ff3fe608060405234801561000f575f80fd5b5060043610610091575f3560e01c806382e0cf6b1161006457806382e0cf6b1461011f578063aeeed33e1461013b578063e098f57d1461016b578063eb92db2714610187578063fb0f4368146101a357610091565b8063054f7d9c1461009557806307e2da96146100b35780631f3302a9146100d157806355ae3f2214610101575b5f80fd5b61009d6101bf565b6040516100aa9190610afa565b60405180910390f35b6100bb6101d1565b6040516100c89190610b35565b60405180910390f35b6100eb60048036038101906100e69190610de7565b6101e8565b6040516100f89190610afa565b60405180910390f35b61010961029c565b6040516101169190610e62565b60405180910390f35b61013960048036038101906101349190610ea5565b6102a2565b005b61015560048036038101906101509190610ed0565b6102be565b6040516101629190610f0a565b60405180910390f35b61018560048036038101906101809190610f4d565b6102d3565b005b6101a1600480360381019061019c9190610f9d565b610406565b005b6101bd60048036038101906101b89190610f9d565b610450565b005b60035f9054906101000a900460ff1681565b5f8054906101000a900467ffffffffffffffff1681565b5f60035f9054906101000a900460ff161561022f576040517f4051e96100000000000000000000000000000000000000000000000000000000815260040160405180910390fd5b5f84148061023f57506001548410155b1561024c575f9050610295565b5f60025f8681526020019081526020015f205490505f61028c8285876040516020016102789190611013565b60405160208183030381529060405261047a565b50905080925050505b9392505050565b60015481565b8060035f6101000a81548160ff02191690831515021790555050565b6002602052805f5260405f205f915090505481565b8167ffffffffffffffff165f8054906101000a900467ffffffffffffffff1667ffffffffffffffff16118061031b57508067ffffffffffffffff168267ffffffffffffffff16115b1561035b576040517f08c379a000000000000000000000000000000000000000000000000000000000815260040161035290611086565b60405180910390fd5b8260025f60015481526020019081526020015f2081905550828167ffffffffffffffff168367ffffffffffffffff167f34dd3689f5bd77a60a3ff2e09483dcab032fa2f1fd7227af3e24bed21beab1cb6001546040516103bb9190610e62565b60405180910390a460015f8154809291906103d5906110d1565b9190505550805f806101000a81548167ffffffffffffffff021916908367ffffffffffffffff160217905550505050565b5f60035f6101000a81548160ff021916908315150217905550805f806101000a81548167ffffffffffffffff021916908367ffffffffffffffff1602179055506001808190555050565b805f806101000a81548167ffffffffffffffff021916908367ffffffffffffffff16021790555050565b5f8060018460400151116104a4575f845f0151511461049f575f600191509150610587565b6104cd565b6104b68460200151856040015161058f565b845f015151146104cc575f600191509150610587565b5b83604001518460200151106104e8575f600291509150610587565b5f6104f28461062d565b90505f855f01515103610525576001856040015103610519578086145f9250925050610587565b5f809250925050610587565b5f8061053e87602001518860400151858a5f01516106a7565b915091505f600581111561055557610554611118565b5b81600581111561056857610567611118565b5b1461057b575f8194509450505050610587565b8782145f945094505050505b935093915050565b5f600182116105a0575f9050610627565b6105a98261085e565b6101006105b69190611145565b90505f6001826105c69190611145565b6001901b90506001816105d99190611145565b84116105e55750610627565b600181036105f7576001915050610627565b61061781856106069190611145565b82856106129190611145565b61058f565b60016106239190611178565b9150505b92915050565b5f60025f60f81b83604051602001610646929190611262565b6040516020818303038152906040526040516106629190611289565b602060405180830381855afa15801561067d573d5f803e3d5ffd5b5050506040513d601f19601f820116820180604052508101906106a091906112b3565b9050919050565b5f805f85036106bc5783600391509150610855565b600185036106e3575f8351146106d85783600491509150610855565b835f91509150610855565b5f8351036106f75783600591509150610855565b5f61070186610895565b90505f61071c855f600188516107179190611145565b6108dc565b90505f828910156107b5575f6107348a858a866106a7565b80935081925050505f600581111561074f5761074e611118565b5b82600581111561076257610761611118565b5b146107765787829550955050505050610855565b6107a7818860018a516107899190611145565b8151811061079a576107996112de565b5b6020026020010151610a32565b5f9550955050505050610855565b5f6107d8848b6107c59190611145565b858b6107d19190611145565b8a866106a7565b80935081925050505f60058111156107f3576107f2611118565b5b82600581111561080657610805611118565b5b1461081a5787829550955050505050610855565b61084b876001895161082c9190611145565b8151811061083d5761083c6112de565b5b602002602001015182610a32565b5f95509550505050505b94509492505050565b5f5b81816001901b1015610880576001816108799190611178565b9050610860565b8061010061088e9190611145565b9050919050565b5f60018210156108a3575f80fd5b5f6108ad83610ab0565b90505f6001826108bd9190611145565b6001901b90508381036108d257600181901c90505b8092505050919050565b606081831115610921576040517f08c379a00000000000000000000000000000000000000000000000000000000081526004016109189061137b565b60405180910390fd5b83518311806109305750835182115b15610970576040517f08c379a000000000000000000000000000000000000000000000000000000000815260040161096790611409565b60405180910390fd5b5f838361097d9190611145565b67ffffffffffffffff81111561099657610995610ba6565b5b6040519080825280602002602001820160405280156109c45781602001602082028036833780820191505090505b5090505f8490505b83811015610a26578581815181106109e7576109e66112de565b5b60200260200101518286836109fc9190611145565b81518110610a0d57610a0c6112de565b5b60200260200101818152505080806001019150506109cc565b50809150509392505050565b5f6002600160f81b8484604051602001610a4e93929190611447565b604051602081830303815290604052604051610a6a9190611289565b602060405180830381855afa158015610a85573d5f803e3d5ffd5b5050506040513d601f19601f82011682018060405250810190610aa891906112b3565b905092915050565b5f805f90505b5f8314610ad7578080610ac8906110d1565b915050600183901c9250610ab6565b80915050919050565b5f8115159050919050565b610af481610ae0565b82525050565b5f602082019050610b0d5f830184610aeb565b92915050565b5f67ffffffffffffffff82169050919050565b610b2f81610b13565b82525050565b5f602082019050610b485f830184610b26565b92915050565b5f604051905090565b5f80fd5b5f80fd5b5f819050919050565b610b7181610b5f565b8114610b7b575f80fd5b50565b5f81359050610b8c81610b68565b92915050565b5f80fd5b5f601f19601f8301169050919050565b7f4e487b71000000000000000000000000000000000000000000000000000000005f52604160045260245ffd5b610bdc82610b96565b810181811067ffffffffffffffff82111715610bfb57610bfa610ba6565b5b80604052505050565b5f610c0d610b4e565b9050610c198282610bd3565b919050565b5f80fd5b5f819050919050565b610c3481610c22565b8114610c3e575f80fd5b50565b5f81359050610c4f81610c2b565b92915050565b5f60408284031215610c6a57610c69610b92565b5b610c746040610c04565b90505f610c8384828501610b7e565b5f830152506020610c9684828501610c41565b60208301525092915050565b5f80fd5b5f67ffffffffffffffff821115610cc057610cbf610ba6565b5b602082029050602081019050919050565b5f80fd5b5f610ce7610ce284610ca6565b610c04565b90508083825260208201905060208402830185811115610d0a57610d09610cd1565b5b835b81811015610d335780610d1f8882610c41565b845260208401935050602081019050610d0c565b5050509392505050565b5f82601f830112610d5157610d50610ca2565b5b8135610d61848260208601610cd5565b91505092915050565b5f60608284031215610d7f57610d7e610b92565b5b610d896060610c04565b90505f82013567ffffffffffffffff811115610da857610da7610c1e565b5b610db484828501610d3d565b5f830152506020610dc784828501610b7e565b6020830152506040610ddb84828501610b7e565b60408301525092915050565b5f805f60808486031215610dfe57610dfd610b57565b5b5f610e0b86828701610b7e565b9350506020610e1c86828701610c55565b925050606084013567ffffffffffffffff811115610e3d57610e3c610b5b565b5b610e4986828701610d6a565b9150509250925092565b610e5c81610b5f565b82525050565b5f602082019050610e755f830184610e53565b92915050565b610e8481610ae0565b8114610e8e575f80fd5b50565b5f81359050610e9f81610e7b565b92915050565b5f60208284031215610eba57610eb9610b57565b5b5f610ec784828501610e91565b91505092915050565b5f60208284031215610ee557610ee4610b57565b5b5f610ef284828501610b7e565b91505092915050565b610f0481610c22565b82525050565b5f602082019050610f1d5f830184610efb565b92915050565b610f2c81610b13565b8114610f36575f80fd5b50565b5f81359050610f4781610f23565b92915050565b5f805f60608486031215610f6457610f63610b57565b5b5f610f7186828701610c41565b9350506020610f8286828701610f39565b9250506040610f9386828701610f39565b9150509250925092565b5f60208284031215610fb257610fb1610b57565b5b5f610fbf84828501610f39565b91505092915050565b610fd181610b5f565b82525050565b610fe081610c22565b82525050565b604082015f820151610ffa5f850182610fc8565b50602082015161100d6020850182610fd7565b50505050565b5f6040820190506110265f830184610fe6565b92915050565b5f82825260208201905092915050565b7f494e56414c49442052414e4745000000000000000000000000000000000000005f82015250565b5f611070600d8361102c565b915061107b8261103c565b602082019050919050565b5f6020820190508181035f83015261109d81611064565b9050919050565b7f4e487b71000000000000000000000000000000000000000000000000000000005f52601160045260245ffd5b5f6110db82610b5f565b91507fffffffffffffffffffffffffffffffffffffffffffffffffffffffffffffffff820361110d5761110c6110a4565b5b600182019050919050565b7f4e487b71000000000000000000000000000000000000000000000000000000005f52602160045260245ffd5b5f61114f82610b5f565b915061115a83610b5f565b9250828203905081811115611172576111716110a4565b5b92915050565b5f61118282610b5f565b915061118d83610b5f565b92508282019050808211156111a5576111a46110a4565b5b92915050565b5f7fff0000000000000000000000000000000000000000000000000000000000000082169050919050565b5f819050919050565b6111f06111eb826111ab565b6111d6565b82525050565b5f81519050919050565b5f81905092915050565b5f5b8381101561122757808201518184015260208101905061120c565b5f8484015250505050565b5f61123c826111f6565b6112468185611200565b935061125681856020860161120a565b80840191505092915050565b5f61126d82856111df565b60018201915061127d8284611232565b91508190509392505050565b5f6112948284611232565b915081905092915050565b5f815190506112ad81610c2b565b92915050565b5f602082840312156112c8576112c7610b57565b5b5f6112d58482850161129f565b91505092915050565b7f4e487b71000000000000000000000000000000000000000000000000000000005f52603260045260245ffd5b7f496e76616c69642072616e67653a205f626567696e20697320677265617465725f8201527f207468616e205f656e6400000000000000000000000000000000000000000000602082015250565b5f611365602a8361102c565b91506113708261130b565b604082019050919050565b5f6020820190508181035f83015261139281611359565b9050919050565b7f496e76616c69642072616e67653a205f626567696e206f72205f656e642061725f8201527f65206f7574206f6620626f756e64730000000000000000000000000000000000602082015250565b5f6113f3602f8361102c565b91506113fe82611399565b604082019050919050565b5f6020820190508181035f830152611420816113e7565b9050919050565b5f819050919050565b61144161143c82610c22565b611427565b82525050565b5f61145282866111df565b6001820191506114628285611430565b6020820191506114728284611430565b60208201915081905094935050505056fea2646970667358221220cdeadca7272a9bc293d13c25b7774822288ff55ce75dfddae5307f698848109164736f6c63430008180033","linkReferences":{}},"methodIdentifiers":{"frozen()":"054f7d9c","initialize(uint64)":"eb92db27","latestBlock()":"07e2da96","state_dataCommitments(uint256)":"aeeed33e","state_proofNonce()":"55ae3f22","submitDataCommitment(bytes32,uint64,uint64)":"e098f57d","updateFreeze(bool)":"82e0cf6b","updateGenesisState(uint64)":"fb0f4368","verifyAttestation(uint256,(uint256,bytes32),(bytes32[],uint256,uint256))":"1f3302a9"},"id":9}